:100000000C9462000C948A000C948A000C948A0070
:100010000C948A000C948A000C948A000C948A0038
:100020000C948A000C948A000C948A000C948A0028
:100030000C948A000C948A000C948A000C948A0018
:100040000C94CB010C948A000C9462040C949404DC
:100050000C948A000C948A000C948A000C948A00F8
:100060000C948A000C948A00000000080002010031
:100070000003040700000000000000000102040863
:100080001020408001020408102001020408102002
:10009000040404040404040402020202020203032E
:1000A00003030303000000002300260029000000D2
:1000B0000000250028002B0000000000240027007D
:1000C0002A00C40411241FBECFEFD8E0DEBFCDBF8D
:1000D00011E0A0E0B1E0EAE9FCE002C005900D9279
:1000E000AE32B107D9F721E0AEE2B1E001C01D9216
:1000F000AC3EB207E1F710E0C4ECD0E004C02297B8
:10010000FE010E944706C23CD107C9F70E941406AF
:100110000C944B060C94000061E08DE00E94850277
:1001200060E08AE00E94850260E086E00E9485022D
:1001300026E040E855E260E070E08FE491E00E9444
:1001400000040E9415026093420170934301809362
:1001500044019093450160933E0170933F01809369
:1001600040019093410188EE93E090933D0180938C
:100170003C0110923B0110923A0184EF91E0909380
:1001800035018093340110923301109232010895A9
:10019000CF92DF92EF92FF920F931F930E9415026E
:1001A0006093420170934301809344019093450111
:1001B0002091320130913301232B21F500913C0134
:1001C00010913D01222717FD2095322FC0903E014E
:1001D000D0903F01E0904001F09041010C0D1D1DB9
:1001E0002E1D3F1D061717072807390758F460937F
:1001F0003E0170933F01809340019093410181E063
:1002000090E002C080E090E01F910F91FF90EF908E
:10021000DF90CF9008950F931F93CF93DF93EC015E
:10022000CC0FDD1F8E01025D1E4FF8012081318150
:10023000232B21F40E94F402892B19F480E090E032
:100240000DC081E090E0F801918380830E94150247
:10025000CA5CDE4F7983688381E090E0DF91CF91C3
:100260001F910F9108950E94C800892B89F061E0C9
:1002700080913A0190913B01892B09F060E0862F33
:1002800090E090933B0180933A018DE00E94BE0282
:100290008AE090E00E940B01892BD9F18091420104
:1002A000909143018C509E4FAA2797FDA095BA2F9D
:1002B0004091420150914301609144017091450188
:1002C00084179507A607B707F0F460E071E08FE4A4
:1002D00091E00E94500560913401709135014AE02F
:1002E00050E08FE491E00E94FB05809134019091F1
:1002F0003501449790933501809334011092330176
:100300001092320106C081E090E090933301809317
:10031000320186E090E00E940B01892BD9F1809197
:100320004A0190914B018C509E4FAA2797FDA095B2
:10033000BA2F409142015091430160914401709164
:10034000450184179507A607B707F0F460E071E050
:100350008FE491E00E945005609134017091350165
:100360004AE050E08FE491E00E94FB058091340167
:100370009091350144969093350180933401109209
:10038000330110923201089581E090E0909333019F
:100390008093320108951F920F920FB60F9211248D
:1003A0002F933F938F939F93AF93BF938091470178
:1003B00090914801A0914901B0914A0130914601C4
:1003C00023E0230F2D3720F40196A11DB11D05C098
:1003D00026E8230F0296A11DB11D209346018093AC
:1003E000470190934801A0934901B0934A0180913D
:1003F0004B0190914C01A0914D01B0914E0101969D
:10040000A11DB11D80934B0190934C01A0934D0110
:10041000B0934E01BF91AF919F918F913F912F91DA
:100420000F900FBE0F901F9018952FB7F894609102
:100430004701709148018091490190914A012FBF75
:100440000895789484B5826084BD84B5816084BD4C
:1004500085B5826085BD85B5816085BDEEE6F0E03D
:10046000808181608083E1E8F0E010828081826099
:100470008083808181608083E0E8F0E0808181601A
:100480008083E1EBF0E0808184608083E0EBF0E04A
:10049000808181608083EAE7F0E0808184608083EE
:1004A0008081826080838081816080838081806898
:1004B00080831092C1000895833081F028F4813048
:1004C00099F08230A1F008958730A9F08830B9F012
:1004D0008430D1F4809180008F7D03C080918000B2
:1004E0008F7780938000089584B58F7702C084B59C
:1004F0008F7D84BD08958091B0008F7703C0809177
:10050000B0008F7D8093B0000895CF93DF9390E08B
:10051000FC01E458FF4F2491FC01E057FF4F849108
:10052000882349F190E0880F991FFC01E854FF4FA0
:10053000A591B49182559F4FFC01C591D4919FB76D
:10054000611108C0F8948C91209582238C93888146
:1005500082230AC0623051F4F8948C91322F309586
:1005600083238C938881822B888304C0F8948C9198
:10057000822B8C939FBFDF91CF9108950F931F9390
:10058000CF93DF931F92CDB7DEB7282F30E0F9016C
:10059000E859FF4F8491F901E458FF4F1491F90194
:1005A000E057FF4F04910023C9F0882321F06983AD
:1005B0000E945C026981E02FF0E0EE0FFF1FE25520
:1005C000FF4FA591B4919FB7F8948C91611103C02E
:1005D0001095812301C0812B8C939FBF0F90DF91D9
:1005E000CF911F910F910895CF93DF93282F30E083
:1005F000F901E859FF4F8491F901E458FF4FD49174
:10060000F901E057FF4FC491CC2391F081110E9472
:100610005C02EC2FF0E0EE0FFF1FEC55FF4FA591B1
:10062000B4912C912D2381E090E021F480E002C070
:1006300080E090E0DF91CF910895FC01818D228DC3
:1006400090E0805C9F4F821B91098F7399270895DA
:10065000FC01918D828D981731F0828DE80FF11D8C
:10066000858D90E008958FEF9FEF0895FC01918DA7
:10067000828D981761F0828DDF01A80FB11D5D9604
:100680008C91928D9F5F9F73928F90E008958FEF72
:100690009FEF08958AEB94E0892B49F080E090E089
:1006A000892B29F00E94BA0481110C94000008954E
:1006B000FC01848DDF01A80FB11DA35ABF4F2C91FF
:1006C000848D90E001968F739927848FA689B789CE
:1006D0002C93A089B1898C9180648C93938D848DA7
:1006E000981306C00288F389E02D80818F7D808376
:1006F0000895CF93DF93EC01888D8823C9F0EA89B0
:10070000FB89808185FD05C0A889B9898C9186FD0A
:100710000FC00FB607FCF5CF808185FFF2CFA88907
:10072000B9898C9185FFEDCFCE010E945803E7CFA8
:10073000DF91CF910895CF92DF92FF920F931F9395
:10074000CF93DF931F92CDB7DEB76C0181E0D60166
:1007500058968C9358975B969C915B975C968C917E
:100760005C97981307C05096ED91FC91519780814A
:1007700085FD2EC0F601038D10E00F5F1F4F0F7334
:100780001127F02EF601848DF81211C00FB607FC68
:10079000F9CFD6015096ED91FC915197808185FF5C
:1007A000F1CFC60169830E9458036981EBCF838D25
:1007B000E80FF11DE35AFF4F6083D6015B960C935F
:1007C0005B975296ED91FC915397808180620CC0AB
:1007D000D6015696ED91FC91579760835096ED9116
:1007E000FC91519780818064808381E090E00F903C
:1007F000DF91CF911F910F91FF90DF90CF900895DF
:10080000BF92CF92DF92EF92FF92CF93DF93EC01F2
:100810006A017B01B22EE889F98982E08083411563
:1008200081EE580761057105A1F060E079E08DE384
:1008300090E0A70196010E94230621503109410949
:1008400051095695479537952795211580E1380729
:1008500098F0E889F989108260E874E88EE190E008
:10086000A70196010E94230621503109410951092F
:100870005695479537952795EC85FD853083EE8510
:10088000FF852083188EEC89FD89B082EA89FB8977
:10089000808180618083EA89FB8980818860808390
:1008A000EA89FB89808180688083EA89FB8980816D
:1008B0008F7D8083DF91CF91FF90EF90DF90CF907D
:1008C000BF9008951F920F920FB60F9211242F938D
:1008D0008F939F93EF93FF93E0915F01F0916001FD
:1008E0008081E0916501F091660182FD12C09081E6
:1008F000809168018F5F8F7320916901821751F099
:10090000E0916801F0E0E15BFE4F958F8093680114
:1009100001C08081FF91EF919F918F912F910F9056
:100920000FBE0F901F9018951F920F920FB60F9247
:1009300011242F933F934F935F936F937F938F93E4
:100940009F93AF93BF93EF93FF938FE491E00E9447
:100950005803FF91EF91BF91AF919F918F917F913C
:100960006F915F914F913F912F910F900FBE0F901C
:100970001F9018958FE491E00E941D0321E0892BC0
:1009800009F420E0822F0895109252011092510133
:1009900088EE93E0A0E0B0E080935301909354017F
:1009A000A0935501B093560181E191E090935001DD
:1009B00080934F0185EC90E090935C0180935B0104
:1009C00084EC90E090935E0180935D0180EC90E078
:1009D0009093600180935F0181EC90E090936201BD
:1009E0008093610182EC90E09093640180936301B5
:1009F00086EC90E090936601809365011092680107
:100A00001092690110926A0110926B010895CF92C1
:100A1000DF92EF92FF920F931F93CF93DF937C01AE
:100A20006A01EB0100E010E00C151D0571F0699101
:100A3000D701ED91FC910190F081E02DC70109955E
:100A4000892B19F00F5F1F4FEFCFC801DF91CF91B6
:100A50001F910F91FF90EF90DF90CF900895611557
:100A6000710581F0DB010D900020E9F7AD014150E7
:100A70005109461B570BDC01ED91FC910280F3817B
:100A8000E02D099480E090E00895DC01ED91FC9167
:100A90000190F081E02D09946DE171E00C942F0537
:100AA0000F931F93CF93DF93EC010E942F058C01CE
:100AB000CE010E944C05800F911FDF91CF911F91B5
:100AC0000F9108958F929F92AF92BF92DF92EF9213
:100AD000FF920F931F93CF93DF93CDB7DEB7A1970C
:100AE0000FB6F894DEBF0FBECDBF7C01F42FD52E1C
:100AF000CB0119A2223008F42AE08E010F5D1F4FAE
:100B0000822E912CA12CB12C6F2F7D2DA50194014B
:100B10000E942306F22FD32ECA01015011096A3018
:100B200014F4E0E301C0E7E3E60FD801EC93232BD4
:100B3000242B252B49F7B801C7010E942F05A19648
:100B40000FB6F894DEBF0FBECDBFDF91CF911F91DE
:100B50000F91FF90EF90DF90BF90AF909F908F909C
:100B60000895CF92DF92EF92FF920F931F93CF934E
:100B7000DF93EC016A017B012115310579F4E881ED
:100B8000F9810190F081E02D642FDF91CF911F91C9
:100B90000F91FF90EF90DF90CF9009942A303105AC
:100BA000E9F477FF1AC06DE20E9445058C014427E5
:100BB0005527BA014C195D096E097F092AE0CE015B
:100BC0000E946205800F911FDF91CF911F910F91BD
:100BD000FF90EF90DF90CF9008952AE0B701A60133
:100BE000CE01DF91CF911F910F91FF90EF90DF9099
:100BF000CF900C9462050F931F93CF93DF93EC017A
:100C00009A01AB01662757FD6095762F0E94B105CA
:100C10008C01CE010E944C05800F911FDF91CF9176
:100C20001F910F91089508950E9421020E941306BA
:100C30000E948C00CAE4D3E00E9433012097E1F3C4
:100C40000E944A03F9CFA1E21A2EAA1BBB1BFD0189
:100C50000DC0AA1FBB1FEE1FFF1FA217B307E4079B
:100C6000F50720F0A21BB30BE40BF50B661F771FF3
:100C7000881F991F1A9469F76095709580959095D3
:100C80009B01AC01BD01CF010895EE0FFF1F059040
:0A0C9000F491E02D0994F894FFCFD1
:100C9A00427574746F6E312074696D6500000000CE
:100CAA00009B0307051D033603280379030D0A0079
:0E0CBA006E616E00696E66006F7666002E0039
:00000001FF
